{
  "_format": "hh-sol-artifact-1",
  "contractName": "Voting",
  "sourceName": "contracts/Voting.sol",
  "abi": [
    {
      "inputs": [],
      "stateMutability": "nonpayable",
      "type": "constructor"
    },
    {
      "inputs": [
        {
          "internalType": "string",
          "name": "_name",
          "type": "string"
        }
      ],
      "name": "addCandidate",
      "outputs": [],
      "stateMutability": "nonpayable",
      "type": "function"
    },
    {
      "inputs": [
        {
          "internalType": "uint256",
          "name": "",
          "type": "uint256"
        }
      ],
      "name": "candidates",
      "outputs": [
        {
          "internalType": "uint256",
          "name": "id",
          "type": "uint256"
        },
        {
          "internalType": "string",
          "name": "name",
          "type": "string"
        },
        {
          "internalType": "uint256",
          "name": "numberofVotes",
          "type": "uint256"
        }
      ],
      "stateMutability": "view",
      "type": "function"
    },
    {
      "inputs": [],
      "name": "checkElectionPeriod",
      "outputs": [
        {
          "internalType": "bool",
          "name": "",
          "type": "bool"
        }
      ],
      "stateMutability": "nonpayable",
      "type": "function"
    },
    {
      "inputs": [],
      "name": "electionStarted",
      "outputs": [
        {
          "internalType": "bool",
          "name": "",
          "type": "bool"
        }
      ],
      "stateMutability": "view",
      "type": "function"
    },
    {
      "inputs": [],
      "name": "electionTimer",
      "outputs": [
        {
          "internalType": "uint256",
          "name": "",
          "type": "uint256"
        }
      ],
      "stateMutability": "view",
      "type": "function"
    },
    {
      "inputs": [
        {
          "internalType": "uint256",
          "name": "",
          "type": "uint256"
        }
      ],
      "name": "listofVoters",
      "outputs": [
        {
          "internalType": "address",
          "name": "",
          "type": "address"
        }
      ],
      "stateMutability": "view",
      "type": "function"
    },
    {
      "inputs": [],
      "name": "owner",
      "outputs": [
        {
          "internalType": "address",
          "name": "",
          "type": "address"
        }
      ],
      "stateMutability": "view",
      "type": "function"
    },
    {
      "inputs": [],
      "name": "resetAllVoterStatus",
      "outputs": [],
      "stateMutability": "nonpayable",
      "type": "function"
    },
    {
      "inputs": [],
      "name": "retrieveVotes",
      "outputs": [
        {
          "components": [
            {
              "internalType": "uint256",
              "name": "id",
              "type": "uint256"
            },
            {
              "internalType": "string",
              "name": "name",
              "type": "string"
            },
            {
              "internalType": "uint256",
              "name": "numberofVotes",
              "type": "uint256"
            }
          ],
          "internalType": "struct Voting.Candidate[]",
          "name": "",
          "type": "tuple[]"
        }
      ],
      "stateMutability": "view",
      "type": "function"
    },
    {
      "inputs": [
        {
          "internalType": "string[]",
          "name": "_candidates",
          "type": "string[]"
        },
        {
          "internalType": "uint256",
          "name": "_votingDuration",
          "type": "uint256"
        }
      ],
      "name": "startElection",
      "outputs": [],
      "stateMutability": "nonpayable",
      "type": "function"
    },
    {
      "inputs": [
        {
          "internalType": "uint256",
          "name": "_id",
          "type": "uint256"
        }
      ],
      "name": "voteTo",
      "outputs": [],
      "stateMutability": "nonpayable",
      "type": "function"
    },
    {
      "inputs": [
        {
          "internalType": "address",
          "name": "_voter",
          "type": "address"
        }
      ],
      "name": "voterStatus",
      "outputs": [
        {
          "internalType": "bool",
          "name": "",
          "type": "bool"
        }
      ],
      "stateMutability": "view",
      "type": "function"
    },
    {
      "inputs": [
        {
          "internalType": "address",
          "name": "",
          "type": "address"
        }
      ],
      "name": "voters",
      "outputs": [
        {
          "internalType": "bool",
          "name": "",
          "type": "bool"
        }
      ],
      "stateMutability": "view",
      "type": "function"
    },
    {
      "inputs": [],
      "name": "votingEnd",
      "outputs": [
        {
          "internalType": "uint256",
          "name": "",
          "type": "uint256"
        }
      ],
      "stateMutability": "view",
      "type": "function"
    },
    {
      "inputs": [],
      "name": "votingStart",
      "outputs": [
        {
          "internalType": "uint256",
          "name": "",
          "type": "uint256"
        }
      ],
      "stateMutability": "view",
      "type": "function"
    }
  ],
  "bytecode": "0x608060405234801561001057600080fd5b5033600160006101000a81548173ffffffffffffffffffffffffffffffffffffffff021916908373ffffffffffffffffffffffffffffffffffffffff160217905550611ba0806100616000396000f3fe608060405234801561001057600080fd5b50600436106100f55760003560e01c8063576cc4f211610097578063d4608b7211610066578063d4608b7214610276578063d4a6cac814610280578063d5346da11461029e578063d63bdb95146102bc576100f5565b8063576cc4f2146101da57806385a386351461020a5780638da5cb5b14610228578063a3ec138d14610246576100f5565b80633477ee2e116100d35780633477ee2e146101525780633c9a4df3146101845780633d7b995c146101a2578063462e91ec146101be576100f5565b8063031e5004146100fa5780630b56a68114610118578063101158af14610134575b600080fd5b6101026102ec565b60405161010f919061100e565b60405180910390f35b610132600480360381019061012d919061128b565b6103f1565b005b61013c6105d7565b60405161014991906112f6565b60405180910390f35b61016c60048036038101906101679190611311565b6105dd565b60405161017b93929190611388565b60405180910390f35b61018c61069f565b60405161019991906112f6565b60405180910390f35b6101bc60048036038101906101b79190611311565b610716565b005b6101d860048036038101906101d391906113c6565b6108ee565b005b6101f460048036038101906101ef919061146d565b610a8f565b60405161020191906114b5565b60405180910390f35b610212610b4b565b60405161021f91906112f6565b60405180910390f35b610230610b51565b60405161023d91906114df565b60405180910390f35b610260600480360381019061025b919061146d565b610b77565b60405161026d91906114b5565b60405180910390f35b61027e610b97565b005b610288610ceb565b60405161029591906114b5565b60405180910390f35b6102a6610d28565b6040516102b391906114b5565b60405180910390f35b6102d660048036038101906102d19190611311565b610d3b565b6040516102e391906114df565b60405180910390f35b60606000805480602002602001604051908101604052809291908181526020016000905b828210156103e857838290600052602060002090600302016040518060600160405290816000820154815260200160018201805461034d90611529565b80601f016020809104026020016040519081016040528092919081815260200182805461037990611529565b80156103c65780601f1061039b576101008083540402835291602001916103c6565b820191906000526020600020905b8154815290600101906020018083116103a957829003601f168201915b5050505050815260200160028201548152505081526020019060010190610310565b50505050905090565b600160009054906101000a900473ffffffffffffffffffffffffffffffffffffffff1673ffffffffffffffffffffffffffffffffffffffff163373ffffffffffffffffffffffffffffffffffffffff1614610481576040517f08c379a0000000000000000000000000000000000000000000000000000000008152600401610478906115cc565b60405180910390fd5b60001515600660009054906101000a900460ff161515146104d7576040517f08c379a00000000000000000000000000000000000000000000000000000000081526004016104ce90611638565b60405180910390fd5b6000806104e49190610d7a565b6104ec610b97565b60005b8251811015610592576000604051806060016040528083815260200185848151811061051e5761051d611658565b5b60200260200101518152602001600081525090806001815401808255809150506001900390600052602060002090600302016000909190919091506000820151816000015560208201518160010190816105789190611833565b5060408201518160020155505080806001019150506104ef565b506001600660006101000a81548160ff02191690831515021790555042600481905550603c816105c29190611934565b426105cd9190611976565b6005819055505050565b60045481565b600081815481106105ed57600080fd5b906000526020600020906003020160009150905080600001549080600101805461061690611529565b80601f016020809104026020016040519081016040528092919081815260200182805461064290611529565b801561068f5780601f106106645761010080835404028352916020019161068f565b820191906000526020600020905b81548152906001019060200180831161067257829003601f168201915b5050505050908060020154905083565b6000600660009054906101000a900460ff166106f0576040517f08c379a00000000000000000000000000000000000000000000000000000000081526004016106e7906119f6565b60405180910390fd5b60055442106107025760009050610713565b426005546107109190611a16565b90505b90565b600660009054906101000a900460ff16610765576040517f08c379a000000000000000000000000000000000000000000000000000000000815260040161075c906119f6565b60405180910390fd5b61076d610ceb565b6107ac576040517f08c379a00000000000000000000000000000000000000000000000000000000081526004016107a390611a96565b60405180910390fd5b6107b533610a8f565b156107f5576040517f08c379a00000000000000000000000000000000000000000000000000000000081526004016107ec90611b02565b60405180910390fd5b6000818154811061080957610808611658565b5b9060005260206000209060030201600201600081548092919061082b90611b22565b91905055506001600260003373ffffffffffffffffffffffffffffffffffffffff1673ffffffffffffffffffffffffffffffffffffffff16815260200190815260200160002060006101000a81548160ff0219169083151502179055506003339080600181540180825580915050600190039060005260206000200160009091909190916101000a81548173ffffffffffffffffffffffffffffffffffffffff021916908373ffffffffffffffffffffffffffffffffffffffff16021790555050565b600160009054906101000a900473ffffffffffffffffffffffffffffffffffffffff1673ffffffffffffffffffffffffffffffffffffffff163373ffffffffffffffffffffffffffffffffffffffff161461097e576040517f08c379a0000000000000000000000000000000000000000000000000000000008152600401610975906115cc565b60405180910390fd5b600660009054906101000a900460ff166109cd576040517f08c379a00000000000000000000000000000000000000000000000000000000081526004016109c4906119f6565b60405180910390fd5b6109d5610ceb565b610a14576040517f08c379a0000000000000000000000000000000000000000000000000000000008152600401610a0b90611a96565b60405180910390fd5b60006040518060600160405280600080549050815260200183815260200160008152509080600181540180825580915050600190039060005260206000209060030201600090919091909150600082015181600001556020820151816001019081610a7f9190611833565b5060408201518160020155505050565b6000600660009054906101000a900460ff16610ae0576040517f08c379a0000000000000000000000000000000000000000000000000000000008152600401610ad7906119f6565b60405180910390fd5b60011515600260008473ffffffffffffffffffffffffffffffffffffffff1673ffffffffffffffffffffffffffffffffffffffff16815260200190815260200160002060009054906101000a900460ff16151503610b415760019050610b46565b600090505b919050565b60055481565b600160009054906101000a900473ffffffffffffffffffffffffffffffffffffffff1681565b60026020528060005260406000206000915054906101000a900460ff1681565b600160009054906101000a900473ffffffffffffffffffffffffffffffffffffffff1673ffffffffffffffffffffffffffffffffffffffff163373ffffffffffffffffffffffffffffffffffffffff1614610c27576040517f08c379a0000000000000000000000000000000000000000000000000000000008152600401610c1e906115cc565b60405180910390fd5b60005b600380549050811015610cda5760006002600060038481548110610c5157610c50611658565b5b9060005260206000200160009054906101000a900473ffffffffffffffffffffffffffffffffffffffff1673ffffffffffffffffffffffffffffffffffffffff1673ffffffffffffffffffffffffffffffffffffffff16815260200190815260200160002060006101000a81548160ff0219169083151502179055508080600101915050610c2a565b5060036000610ce99190610d9e565b565b600080610cf661069f565b1115610d055760019050610d25565b6000600660006101000a81548160ff021916908315150217905550600090505b90565b600660009054906101000a900460ff1681565b60038181548110610d4b57600080fd5b906000526020600020016000915054906101000a900473ffffffffffffffffffffffffffffffffffffffff1681565b5080546000825560030290600052602060002090810190610d9b9190610dbf565b50565b5080546000825590600052602060002090810190610dbc9190610df6565b50565b5b80821115610df257600080820160009055600182016000610de19190610e13565b600282016000905550600301610dc0565b5090565b5b80821115610e0f576000816000905550600101610df7565b5090565b508054610e1f90611529565b6000825580601f10610e315750610e50565b601f016020900490600052602060002090810190610e4f9190610df6565b5b50565b600081519050919050565b600082825260208201905092915050565b6000819050602082019050919050565b6000819050919050565b610e9281610e7f565b82525050565b600081519050919050565b600082825260208201905092915050565b60005b83811015610ed2578082015181840152602081019050610eb7565b60008484015250505050565b6000601f19601f8301169050919050565b6000610efa82610e98565b610f048185610ea3565b9350610f14818560208601610eb4565b610f1d81610ede565b840191505092915050565b6000606083016000830151610f406000860182610e89565b5060208301518482036020860152610f588282610eef565b9150506040830151610f6d6040860182610e89565b508091505092915050565b6000610f848383610f28565b905092915050565b6000602082019050919050565b6000610fa482610e53565b610fae8185610e5e565b935083602082028501610fc085610e6f565b8060005b85811015610ffc5784840389528151610fdd8582610f78565b9450610fe883610f8c565b925060208a01995050600181019050610fc4565b50829750879550505050505092915050565b600060208201905081810360008301526110288184610f99565b905092915050565b6000604051905090565b600080fd5b600080fd5b600080fd5b7f4e487b7100000000000000000000000000000000000000000000000000000000600052604160045260246000fd5b61108182610ede565b810181811067ffffffffffffffff821117156110a05761109f611049565b5b80604052505050565b60006110b3611030565b90506110bf8282611078565b919050565b600067ffffffffffffffff8211156110df576110de611049565b5b602082029050602081019050919050565b600080fd5b600080fd5b600067ffffffffffffffff82111561111557611114611049565b5b61111e82610ede565b9050602081019050919050565b82818337600083830152505050565b600061114d611148846110fa565b6110a9565b905082815260208101848484011115611169576111686110f5565b5b61117484828561112b565b509392505050565b600082601f83011261119157611190611044565b5b81356111a184826020860161113a565b91505092915050565b60006111bd6111b8846110c4565b6110a9565b905080838252602082019050602084028301858111156111e0576111df6110f0565b5b835b8181101561122757803567ffffffffffffffff81111561120557611204611044565b5b808601611212898261117c565b855260208501945050506020810190506111e2565b5050509392505050565b600082601f83011261124657611245611044565b5b81356112568482602086016111aa565b91505092915050565b61126881610e7f565b811461127357600080fd5b50565b6000813590506112858161125f565b92915050565b600080604083850312156112a2576112a161103a565b5b600083013567ffffffffffffffff8111156112c0576112bf61103f565b5b6112cc85828601611231565b92505060206112dd85828601611276565b9150509250929050565b6112f081610e7f565b82525050565b600060208201905061130b60008301846112e7565b92915050565b6000602082840312156113275761132661103a565b5b600061133584828501611276565b91505092915050565b600082825260208201905092915050565b600061135a82610e98565b611364818561133e565b9350611374818560208601610eb4565b61137d81610ede565b840191505092915050565b600060608201905061139d60008301866112e7565b81810360208301526113af818561134f565b90506113be60408301846112e7565b949350505050565b6000602082840312156113dc576113db61103a565b5b600082013567ffffffffffffffff8111156113fa576113f961103f565b5b6114068482850161117c565b91505092915050565b600073ffffffffffffffffffffffffffffffffffffffff82169050919050565b600061143a8261140f565b9050919050565b61144a8161142f565b811461145557600080fd5b50565b60008135905061146781611441565b92915050565b6000602082840312156114835761148261103a565b5b600061149184828501611458565b91505092915050565b60008115159050919050565b6114af8161149a565b82525050565b60006020820190506114ca60008301846114a6565b92915050565b6114d98161142f565b82525050565b60006020820190506114f460008301846114d0565b92915050565b7f4e487b7100000000000000000000000000000000000000000000000000000000600052602260045260246000fd5b6000600282049050600182168061154157607f821691505b602082108103611554576115536114fa565b5b50919050565b7f596f7520617265206e6f7420617574686f72697a656420746f2073746172742060008201527f616e20656c656374696f6e000000000000000000000000000000000000000000602082015250565b60006115b6602b8361133e565b91506115c18261155a565b604082019050919050565b600060208201905081810360008301526115e5816115a9565b9050919050565b7f456c656374696f6e2069732063757272656e746c79206f6e676f696e67000000600082015250565b6000611622601d8361133e565b915061162d826115ec565b602082019050919050565b6000602082019050818103600083015261165181611615565b9050919050565b7f4e487b7100000000000000000000000000000000000000000000000000000000600052603260045260246000fd5b60008190508160005260206000209050919050565b60006020601f8301049050919050565b600082821b905092915050565b6000600883026116e97fffffffffffffffffffffffffffffffffffffffffffffffffffffffffffffffff826116ac565b6116f386836116ac565b95508019841693508086168417925050509392505050565b6000819050919050565b600061173061172b61172684610e7f565b61170b565b610e7f565b9050919050565b6000819050919050565b61174a83611715565b61175e61175682611737565b8484546116b9565b825550505050565b600090565b611773611766565b61177e818484611741565b505050565b5b818110156117a25761179760008261176b565b600181019050611784565b5050565b601f8211156117e7576117b881611687565b6117c18461169c565b810160208510156117d0578190505b6117e46117dc8561169c565b830182611783565b50505b505050565b600082821c905092915050565b600061180a600019846008026117ec565b1980831691505092915050565b600061182383836117f9565b9150826002028217905092915050565b61183c82610e98565b67ffffffffffffffff81111561185557611854611049565b5b61185f8254611529565b61186a8282856117a6565b600060209050601f83116001811461189d576000841561188b578287015190505b6118958582611817565b8655506118fd565b601f1984166118ab86611687565b60005b828110156118d3578489015182556001820191506020850194506020810190506118ae565b868310156118f057848901516118ec601f8916826117f9565b8355505b6001600288020188555050505b505050505050565b7f4e487b7100000000000000000000000000000000000000000000000000000000600052601160045260246000fd5b600061193f82610e7f565b915061194a83610e7f565b925082820261195881610e7f565b9150828204841483151761196f5761196e611905565b5b5092915050565b600061198182610e7f565b915061198c83610e7f565b92508282019050808211156119a4576119a3611905565b5b92915050565b7f4e6f20656c656374696f6e207965740000000000000000000000000000000000600082015250565b60006119e0600f8361133e565b91506119eb826119aa565b602082019050919050565b60006020820190508181036000830152611a0f816119d3565b9050919050565b6000611a2182610e7f565b9150611a2c83610e7f565b9250828203905081811115611a4457611a43611905565b5b92915050565b7f456c656374696f6e20706572696f642068617320656e64656400000000000000600082015250565b6000611a8060198361133e565b9150611a8b82611a4a565b602082019050919050565b60006020820190508181036000830152611aaf81611a73565b9050919050565b7f596f752063616e206f6e6c7920766f7465206f6e636500000000000000000000600082015250565b6000611aec60168361133e565b9150611af782611ab6565b602082019050919050565b60006020820190508181036000830152611b1b81611adf565b9050919050565b6000611b2d82610e7f565b91507fffffffffffffffffffffffffffffffffffffffffffffffffffffffffffffffff8203611b5f57611b5e611905565b5b60018201905091905056fea2646970667358221220074fc538d7367f2528537cb9ba1f98078ad8056fc5c8a62ad0f83534e45b864364736f6c63430008180033",
  "linkReferences": {},
  "deployedLinkReferences": {}
}